{
  "_format": "hh-sol-artifact-1",
  "contractName": "CyberKnights",
  "sourceName": "contracts/CyberKnights.sol",
  "abi": [
    {
      "inputs": [],
      "stateMutability": "nonpayable",
      "type": "constructor"
    },
    {
      "inputs": [],
      "name": "ApprovalCallerNotOwnerNorApproved",
      "type": "error"
    },
    {
      "inputs": [],
      "name": "ApprovalQueryForNonexistentToken",
      "type": "error"
    },
    {
      "inputs": [],
      "name": "BalanceQueryForZeroAddress",
      "type": "error"
    },
    {
      "inputs": [],
      "name": "MintERC2309QuantityExceedsLimit",
      "type": "error"
    },
    {
      "inputs": [],
      "name": "MintToZeroAddress",
      "type": "error"
    },
    {
      "inputs": [],
      "name": "MintZeroQuantity",
      "type": "error"
    },
    {
      "inputs": [],
      "name": "OwnerQueryForNonexistentToken",
      "type": "error"
    },
    {
      "inputs": [],
      "name": "OwnershipNotInitializedForExtraData",
      "type": "error"
    },
    {
      "inputs": [],
      "name": "TransferCallerNotOwnerNorApproved",
      "type": "error"
    },
    {
      "inputs": [],
      "name": "TransferFromIncorrectOwner",
      "type": "error"
    },
    {
      "inputs": [],
      "name": "TransferToNonERC721ReceiverImplementer",
      "type": "error"
    },
    {
      "inputs": [],
      "name": "TransferToZeroAddress",
      "type": "error"
    },
    {
      "inputs": [],
      "name": "URIQueryForNonexistentToken",
      "type": "error"
    },
    {
      "anonymous": false,
      "inputs": [
        {
          "indexed": true,
          "internalType": "address",
          "name": "owner",
          "type": "address"
        },
        {
          "indexed": true,
          "internalType": "address",
          "name": "approved",
          "type": "address"
        },
        {
          "indexed": true,
          "internalType": "uint256",
          "name": "tokenId",
          "type": "uint256"
        }
      ],
      "name": "Approval",
      "type": "event"
    },
    {
      "anonymous": false,
      "inputs": [
        {
          "indexed": true,
          "internalType": "address",
          "name": "owner",
          "type": "address"
        },
        {
          "indexed": true,
          "internalType": "address",
          "name": "operator",
          "type": "address"
        },
        {
          "indexed": false,
          "internalType": "bool",
          "name": "approved",
          "type": "bool"
        }
      ],
      "name": "ApprovalForAll",
      "type": "event"
    },
    {
      "anonymous": false,
      "inputs": [
        {
          "indexed": true,
          "internalType": "uint256",
          "name": "fromTokenId",
          "type": "uint256"
        },
        {
          "indexed": false,
          "internalType": "uint256",
          "name": "toTokenId",
          "type": "uint256"
        },
        {
          "indexed": true,
          "internalType": "address",
          "name": "from",
          "type": "address"
        },
        {
          "indexed": true,
          "internalType": "address",
          "name": "to",
          "type": "address"
        }
      ],
      "name": "ConsecutiveTransfer",
      "type": "event"
    },
    {
      "anonymous": false,
      "inputs": [
        {
          "indexed": true,
          "internalType": "address",
          "name": "previousOwner",
          "type": "address"
        },
        {
          "indexed": true,
          "internalType": "address",
          "name": "newOwner",
          "type": "address"
        }
      ],
      "name": "OwnershipTransferred",
      "type": "event"
    },
    {
      "anonymous": false,
      "inputs": [
        {
          "indexed": true,
          "internalType": "address",
          "name": "from",
          "type": "address"
        },
        {
          "indexed": true,
          "internalType": "address",
          "name": "to",
          "type": "address"
        },
        {
          "indexed": true,
          "internalType": "uint256",
          "name": "tokenId",
          "type": "uint256"
        }
      ],
      "name": "Transfer",
      "type": "event"
    },
    {
      "inputs": [
        {
          "internalType": "address",
          "name": "recipient",
          "type": "address"
        },
        {
          "internalType": "uint256",
          "name": "quantity",
          "type": "uint256"
        }
      ],
      "name": "airdrop",
      "outputs": [],
      "stateMutability": "nonpayable",
      "type": "function"
    },
    {
      "inputs": [
        {
          "internalType": "address",
          "name": "to",
          "type": "address"
        },
        {
          "internalType": "uint256",
          "name": "tokenId",
          "type": "uint256"
        }
      ],
      "name": "approve",
      "outputs": [],
      "stateMutability": "payable",
      "type": "function"
    },
    {
      "inputs": [
        {
          "internalType": "address",
          "name": "owner",
          "type": "address"
        }
      ],
      "name": "balanceOf",
      "outputs": [
        {
          "internalType": "uint256",
          "name": "",
          "type": "uint256"
        }
      ],
      "stateMutability": "view",
      "type": "function"
    },
    {
      "inputs": [],
      "name": "baseExtenstion",
      "outputs": [
        {
          "internalType": "string",
          "name": "",
          "type": "string"
        }
      ],
      "stateMutability": "view",
      "type": "function"
    },
    {
      "inputs": [
        {
          "internalType": "bool",
          "name": "_publicMintOpen",
          "type": "bool"
        }
      ],
      "name": "editMint",
      "outputs": [],
      "stateMutability": "nonpayable",
      "type": "function"
    },
    {
      "inputs": [
        {
          "internalType": "uint256",
          "name": "tokenId",
          "type": "uint256"
        }
      ],
      "name": "getApproved",
      "outputs": [
        {
          "internalType": "address",
          "name": "",
          "type": "address"
        }
      ],
      "stateMutability": "view",
      "type": "function"
    },
    {
      "inputs": [],
      "name": "getTotalTokensMinted",
      "outputs": [
        {
          "internalType": "uint256",
          "name": "",
          "type": "uint256"
        }
      ],
      "stateMutability": "view",
      "type": "function"
    },
    {
      "inputs": [
        {
          "internalType": "address",
          "name": "owner",
          "type": "address"
        },
        {
          "internalType": "address",
          "name": "operator",
          "type": "address"
        }
      ],
      "name": "isApprovedForAll",
      "outputs": [
        {
          "internalType": "bool",
          "name": "",
          "type": "bool"
        }
      ],
      "stateMutability": "view",
      "type": "function"
    },
    {
      "inputs": [
        {
          "internalType": "uint256",
          "name": "quantity",
          "type": "uint256"
        }
      ],
      "name": "mint",
      "outputs": [],
      "stateMutability": "payable",
      "type": "function"
    },
    {
      "inputs": [
        {
          "internalType": "uint256",
          "name": "quantity",
          "type": "uint256"
        }
      ],
      "name": "mintOwner",
      "outputs": [],
      "stateMutability": "nonpayable",
      "type": "function"
    },
    {
      "inputs": [],
      "name": "mintRate",
      "outputs": [
        {
          "internalType": "uint256",
          "name": "",
          "type": "uint256"
        }
      ],
      "stateMutability": "view",
      "type": "function"
    },
    {
      "inputs": [],
      "name": "name",
      "outputs": [
        {
          "internalType": "string",
          "name": "",
          "type": "string"
        }
      ],
      "stateMutability": "view",
      "type": "function"
    },
    {
      "inputs": [],
      "name": "owner",
      "outputs": [
        {
          "internalType": "address",
          "name": "",
          "type": "address"
        }
      ],
      "stateMutability": "view",
      "type": "function"
    },
    {
      "inputs": [
        {
          "internalType": "uint256",
          "name": "tokenId",
          "type": "uint256"
        }
      ],
      "name": "ownerOf",
      "outputs": [
        {
          "internalType": "address",
          "name": "",
          "type": "address"
        }
      ],
      "stateMutability": "view",
      "type": "function"
    },
    {
      "inputs": [],
      "name": "publicMintOpen",
      "outputs": [
        {
          "internalType": "bool",
          "name": "",
          "type": "bool"
        }
      ],
      "stateMutability": "view",
      "type": "function"
    },
    {
      "inputs": [],
      "name": "renounceOwnership",
      "outputs": [],
      "stateMutability": "nonpayable",
      "type": "function"
    },
    {
      "inputs": [
        {
          "internalType": "address",
          "name": "from",
          "type": "address"
        },
        {
          "internalType": "address",
          "name": "to",
          "type": "address"
        },
        {
          "internalType": "uint256",
          "name": "tokenId",
          "type": "uint256"
        }
      ],
      "name": "safeTransferFrom",
      "outputs": [],
      "stateMutability": "payable",
      "type": "function"
    },
    {
      "inputs": [
        {
          "internalType": "address",
          "name": "from",
          "type": "address"
        },
        {
          "internalType": "address",
          "name": "to",
          "type": "address"
        },
        {
          "internalType": "uint256",
          "name": "tokenId",
          "type": "uint256"
        },
        {
          "internalType": "bytes",
          "name": "_data",
          "type": "bytes"
        }
      ],
      "name": "safeTransferFrom",
      "outputs": [],
      "stateMutability": "payable",
      "type": "function"
    },
    {
      "inputs": [
        {
          "internalType": "address",
          "name": "operator",
          "type": "address"
        },
        {
          "internalType": "bool",
          "name": "approved",
          "type": "bool"
        }
      ],
      "name": "setApprovalForAll",
      "outputs": [],
      "stateMutability": "nonpayable",
      "type": "function"
    },
    {
      "inputs": [
        {
          "internalType": "string",
          "name": "baseTokenUri_",
          "type": "string"
        }
      ],
      "name": "setBaseTokenUri",
      "outputs": [],
      "stateMutability": "nonpayable",
      "type": "function"
    },
    {
      "inputs": [
        {
          "internalType": "uint256",
          "name": "_mintRate",
          "type": "uint256"
        }
      ],
      "name": "setMintRate",
      "outputs": [],
      "stateMutability": "nonpayable",
      "type": "function"
    },
    {
      "inputs": [
        {
          "internalType": "bytes4",
          "name": "interfaceId",
          "type": "bytes4"
        }
      ],
      "name": "supportsInterface",
      "outputs": [
        {
          "internalType": "bool",
          "name": "",
          "type": "bool"
        }
      ],
      "stateMutability": "view",
      "type": "function"
    },
    {
      "inputs": [],
      "name": "symbol",
      "outputs": [
        {
          "internalType": "string",
          "name": "",
          "type": "string"
        }
      ],
      "stateMutability": "view",
      "type": "function"
    },
    {
      "inputs": [
        {
          "internalType": "uint256",
          "name": "tokenId_",
          "type": "uint256"
        }
      ],
      "name": "tokenURI",
      "outputs": [
        {
          "internalType": "string",
          "name": "",
          "type": "string"
        }
      ],
      "stateMutability": "view",
      "type": "function"
    },
    {
      "inputs": [],
      "name": "totalSupply",
      "outputs": [
        {
          "internalType": "uint256",
          "name": "",
          "type": "uint256"
        }
      ],
      "stateMutability": "view",
      "type": "function"
    },
    {
      "inputs": [],
      "name": "totalTokensMinted",
      "outputs": [
        {
          "internalType": "uint256",
          "name": "",
          "type": "uint256"
        }
      ],
      "stateMutability": "view",
      "type": "function"
    },
    {
      "inputs": [
        {
          "internalType": "address",
          "name": "from",
          "type": "address"
        },
        {
          "internalType": "address",
          "name": "to",
          "type": "address"
        },
        {
          "internalType": "uint256",
          "name": "tokenId",
          "type": "uint256"
        }
      ],
      "name": "transferFrom",
      "outputs": [],
      "stateMutability": "payable",
      "type": "function"
    },
    {
      "inputs": [
        {
          "internalType": "address",
          "name": "newOwner",
          "type": "address"
        }
      ],
      "name": "transferOwnership",
      "outputs": [],
      "stateMutability": "nonpayable",
      "type": "function"
    },
    {
      "inputs": [
        {
          "internalType": "address",
          "name": "_addr",
          "type": "address"
        }
      ],
      "name": "withdraw",
      "outputs": [],
      "stateMutability": "nonpayable",
      "type": "function"
    },
    {
      "stateMutability": "payable",
      "type": "receive"
    }
  ],
  "bytecode": "0x608060405260146009556101f4600a55600a600b556611c37937e08000600c556040518060400160405280600581526020017f2e6a736f6e000000000000000000000000000000000000000000000000000000815250600e9081620000659190620004ae565b506000601060006101000a81548160ff0219169083151502179055503480156200008e57600080fd5b506040518060400160405280600c81526020017f43796265724b6e696768747300000000000000000000000000000000000000008152506040518060400160405280600381526020017f43424b000000000000000000000000000000000000000000000000000000000081525081600290816200010c9190620004ae565b5080600390816200011e9190620004ae565b506200012f6200015d60201b60201c565b6000819055505050620001576200014b6200016660201b60201c565b6200016e60201b60201c565b62000595565b60006001905090565b600033905090565b6000600860009054906101000a900473ffffffffffffffffffffffffffffffffffffffff16905081600860006101000a81548173ffffffffffffffffffffffffffffffffffffffff021916908373ffffffffffffffffffffffffffffffffffffffff1602179055508173ffffffffffffffffffffffffffffffffffffffff168173ffffffffffffffffffffffffffffffffffffffff167f8be0079c531659141344cd1fd0a4f28419497f9722a3daafe3b4186f6b6457e060405160405180910390a35050565b600081519050919050565b7f4e487b7100000000000000000000000000000000000000000000000000000000600052604160045260246000fd5b7f4e487b7100000000000000000000000000000000000000000000000000000000600052602260045260246000fd5b60006002820490506001821680620002b657607f821691505b602082108103620002cc57620002cb6200026e565b5b50919050565b60008190508160005260206000209050919050565b60006020601f8301049050919050565b600082821b905092915050565b600060088302620003367fffffffffffffffffffffffffffffffffffffffffffffffffffffffffffffffff82620002f7565b620003428683620002f7565b95508019841693508086168417925050509392505050565b6000819050919050565b6000819050919050565b60006200038f6200038962000383846200035a565b62000364565b6200035a565b9050919050565b6000819050919050565b620003ab836200036e565b620003c3620003ba8262000396565b84845462000304565b825550505050565b600090565b620003da620003cb565b620003e7818484620003a0565b505050565b5b818110156200040f5762000403600082620003d0565b600181019050620003ed565b5050565b601f8211156200045e576200042881620002d2565b6200043384620002e7565b8101602085101562000443578190505b6200045b6200045285620002e7565b830182620003ec565b50505b505050565b600082821c905092915050565b6000620004836000198460080262000463565b1980831691505092915050565b60006200049e838362000470565b9150826002028217905092915050565b620004b98262000234565b67ffffffffffffffff811115620004d557620004d46200023f565b5b620004e182546200029d565b620004ee82828562000413565b600060209050601f83116001811462000526576000841562000511578287015190505b6200051d858262000490565b8655506200058d565b601f1984166200053686620002d2565b60005b82811015620005605784890151825560018201915060208501945060208101905062000539565b868310156200058057848901516200057c601f89168262000470565b8355505b6001600288020188555050505b505050505050565b612f8880620005a56000396000f3fe6080604052600436106101c65760003560e01c80638ba4cc3c116100f7578063b88d4fde11610095578063d6e2575d11610064578063d6e2575d146105f6578063dbe2193f1461061f578063e985e9c514610648578063f2fde38b14610685576101cd565b8063b88d4fde14610547578063bcc9ca5b14610563578063c87b56dd1461058e578063ca0dcf16146105cb576101cd565b80639585f5af116100d15780639585f5af146104ac57806395d89b41146104d7578063a0712d6814610502578063a22cb4651461051e576101cd565b80638ba4cc3c1461042f5780638da5cb5b1461045857806395652cfa14610483576101cd565b806342842e0e1161016457806370a082311161013e57806370a0823114610385578063715018a6146103c25780637d549e99146103d957806385b9b61114610404576101cd565b806342842e0e1461030357806351cff8d91461031f5780636352211e14610348576101cd565b8063095ea7b3116101a0578063095ea7b31461027757806318160ddd1461029357806323b872dd146102be57806333f88d22146102da576101cd565b806301ffc9a7146101d257806306fdde031461020f578063081812fc1461023a576101cd565b366101cd57005b600080fd5b3480156101de57600080fd5b506101f960048036038101906101f49190611fbc565b6106ae565b6040516102069190612004565b60405180910390f35b34801561021b57600080fd5b50610224610740565b60405161023191906120af565b60405180910390f35b34801561024657600080fd5b50610261600480360381019061025c9190612107565b6107d2565b60405161026e9190612175565b60405180910390f35b610291600480360381019061028c91906121bc565b610851565b005b34801561029f57600080fd5b506102a8610995565b6040516102b5919061220b565b60405180910390f35b6102d860048036038101906102d39190612226565b6109ac565b005b3480156102e657600080fd5b5061030160048036038101906102fc9190612107565b610cce565b005b61031d60048036038101906103189190612226565b610d53565b005b34801561032b57600080fd5b5061034660048036038101906103419190612279565b610d73565b005b34801561035457600080fd5b5061036f600480360381019061036a9190612107565b610dcb565b60405161037c9190612175565b60405180910390f35b34801561039157600080fd5b506103ac60048036038101906103a79190612279565b610ddd565b6040516103b9919061220b565b60405180910390f35b3480156103ce57600080fd5b506103d7610e95565b005b3480156103e557600080fd5b506103ee610ea9565b6040516103fb919061220b565b60405180910390f35b34801561041057600080fd5b50610419610eaf565b604051610426919061220b565b60405180910390f35b34801561043b57600080fd5b50610456600480360381019061045191906121bc565b610eb9565b005b34801561046457600080fd5b5061046d610f5d565b60405161047a9190612175565b60405180910390f35b34801561048f57600080fd5b506104aa60048036038101906104a5919061230b565b610f87565b005b3480156104b857600080fd5b506104c1610fa5565b6040516104ce91906120af565b60405180910390f35b3480156104e357600080fd5b506104ec611033565b6040516104f991906120af565b60405180910390f35b61051c60048036038101906105179190612107565b6110c5565b005b34801561052a57600080fd5b5061054560048036038101906105409190612384565b611246565b005b610561600480360381019061055c91906124f4565b611351565b005b34801561056f57600080fd5b506105786113c4565b6040516105859190612004565b60405180910390f35b34801561059a57600080fd5b506105b560048036038101906105b09190612107565b6113d7565b6040516105c291906120af565b60405180910390f35b3480156105d757600080fd5b506105e0611453565b6040516105ed919061220b565b60405180910390f35b34801561060257600080fd5b5061061d60048036038101906106189190612577565b611459565b005b34801561062b57600080fd5b5061064660048036038101906106419190612107565b61147e565b005b34801561065457600080fd5b5061066f600480360381019061066a91906125a4565b611490565b60405161067c9190612004565b60405180910390f35b34801561069157600080fd5b506106ac60048036038101906106a79190612279565b611524565b005b60006301ffc9a760e01b827bffffffffffffffffffffffffffffffffffffffffffffffffffffffff1916148061070957506380ac58cd60e01b827bffffffffffffffffffffffffffffffffffffffffffffffffffffffff1916145b806107395750635b5e139f60e01b827bffffffffffffffffffffffffffffffffffffffffffffffffffffffff1916145b9050919050565b60606002805461074f90612613565b80601f016020809104026020016040519081016040528092919081815260200182805461077b90612613565b80156107c85780601f1061079d576101008083540402835291602001916107c8565b820191906000526020600020905b8154815290600101906020018083116107ab57829003601f168201915b5050505050905090565b60006107dd826115a7565b610813576040517fcf4700e400000000000000000000000000000000000000000000000000000000815260040160405180910390fd5b6006600083815260200190815260200160002060000160009054906101000a900473ffffffffffffffffffffffffffffffffffffffff169050919050565b600061085c82610dcb565b90508073ffffffffffffffffffffffffffffffffffffffff1661087d611606565b73ffffffffffffffffffffffffffffffffffffffff16146108e0576108a9816108a4611606565b611490565b6108df576040517fcfb3b94200000000000000000000000000000000000000000000000000000000815260040160405180910390fd5b5b826006600084815260200190815260200160002060000160006101000a81548173ffffffffffffffffffffffffffffffffffffffff021916908373ffffffffffffffffffffffffffffffffffffffff160217905550818373ffffffffffffffffffffffffffffffffffffffff168273ffffffffffffffffffffffffffffffffffffffff167f8c5be1e5ebec7d5bd14f71427d1e84f3dd0314c0f7b2291e5b200ac8c7c3b92560405160405180910390a4505050565b600061099f61160e565b6001546000540303905090565b60006109b782611617565b90508373ffffffffffffffffffffffffffffffffffffffff168173ffffffffffffffffffffffffffffffffffffffff1614610a1e576040517fa114810000000000000000000000000000000000000000000000000000000000815260040160405180910390fd5b600080610a2a846116e3565b91509150610a408187610a3b611606565b61170a565b610a8c57610a5586610a50611606565b611490565b610a8b576040517f59c896be00000000000000000000000000000000000000000000000000000000815260040160405180910390fd5b5b600073ffffffffffffffffffffffffffffffffffffffff168573ffffffffffffffffffffffffffffffffffffffff1603610af2576040517fea553b3400000000000000000000000000000000000000000000000000000000815260040160405180910390fd5b610aff868686600161174e565b8015610b0a57600082555b600560008773ffffffffffffffffffffffffffffffffffffffff1673ffffffffffffffffffffffffffffffffffffffff168152602001908152602001600020600081546001900391905081905550600560008673ffffffffffffffffffffffffffffffffffffffff1673ffffffffffffffffffffffffffffffffffffffff1681526020019081526020016000206000815460010191905081905550610bd885610bb4888887611754565b7c02000000000000000000000000000000000000000000000000000000001761177c565b600460008681526020019081526020016000208190555060007c0200000000000000000000000000000000000000000000000000000000841603610c5e5760006001850190506000600460008381526020019081526020016000205403610c5c576000548114610c5b578360046000838152602001908152602001600020819055505b5b505b838573ffffffffffffffffffffffffffffffffffffffff168773ffffffffffffffffffffffffffffffffffffffff167fddf252ad1be2c89b69c2b068fc378daa952ba7f163c4a11628f55a4df523b3ef60405160405180910390a4610cc686868660016117a7565b505050505050565b610cd66117ad565b600a5481610ce2610995565b610cec9190612673565b1115610d2d576040517f08c379a0000000000000000000000000000000000000000000000000000000008152600401610d24906126f3565b60405180910390fd5b610d37338261182b565b80600d6000828254610d499190612673565b9250508190555050565b610d6e83838360405180602001604052806000815250611351565b505050565b610d7b6117ad565b60004790508173ffffffffffffffffffffffffffffffffffffffff166108fc829081150290604051600060405180830381858888f19350505050158015610dc6573d6000803e3d6000fd5b505050565b6000610dd682611617565b9050919050565b60008073ffffffffffffffffffffffffffffffffffffffff168273ffffffffffffffffffffffffffffffffffffffff1603610e44576040517f8f4eb60400000000000000000000000000000000000000000000000000000000815260040160405180910390fd5b67ffffffffffffffff600560008473ffffffffffffffffffffffffffffffffffffffff1673ffffffffffffffffffffffffffffffffffffffff16815260200190815260200160002054169050919050565b610e9d6117ad565b610ea76000611849565b565b600d5481565b6000600d54905090565b610ec16117ad565b601481610ecc610995565b610ed69190612673565b1115610f17576040517f08c379a0000000000000000000000000000000000000000000000000000000008152600401610f0e906126f3565b60405180910390fd5b60005b81811015610f5857610f2d83600161182b565b600d6000815480929190610f4090612713565b91905055508080610f5090612713565b915050610f1a565b505050565b6000600860009054906101000a900473ffffffffffffffffffffffffffffffffffffffff16905090565b610f8f6117ad565b8181600f9182610fa0929190612912565b505050565b600e8054610fb290612613565b80601f0160208091040260200160405190810160405280929190818152602001828054610fde90612613565b801561102b5780601f106110005761010080835404028352916020019161102b565b820191906000526020600020905b81548152906001019060200180831161100e57829003601f168201915b505050505081565b60606003805461104290612613565b80601f016020809104026020016040519081016040528092919081815260200182805461106e90612613565b80156110bb5780601f10611090576101008083540402835291602001916110bb565b820191906000526020600020905b81548152906001019060200180831161109e57829003601f168201915b5050505050905090565b601060009054906101000a900460ff16611114576040517f08c379a000000000000000000000000000000000000000000000000000000000815260040161110b90612a2e565b60405180910390fd5b6009546111203361190f565b8261112b9190612673565b111561116c576040517f08c379a000000000000000000000000000000000000000000000000000000000815260040161116390612a9a565b60405180910390fd5b600b54600a5461117c9190612aba565b81611185610995565b61118f9190612673565b11156111d0576040517f08c379a00000000000000000000000000000000000000000000000000000000081526004016111c7906126f3565b60405180910390fd5b80600c546111de9190612aee565b341015611220576040517f08c379a000000000000000000000000000000000000000000000000000000000815260040161121790612b7c565b60405180910390fd5b61122a338261182b565b80600d600082825461123c9190612673565b9250508190555050565b8060076000611253611606565b73ffffffffffffffffffffffffffffffffffffffff1673ffffffffffffffffffffffffffffffffffffffff16815260200190815260200160002060008473ffffffffffffffffffffffffffffffffffffffff1673ffffffffffffffffffffffffffffffffffffffff16815260200190815260200160002060006101000a81548160ff0219169083151502179055508173ffffffffffffffffffffffffffffffffffffffff16611300611606565b73ffffffffffffffffffffffffffffffffffffffff167f17307eab39ab6107e8899845ad3d59bd9653f200f220920489ca2b5937696c31836040516113459190612004565b60405180910390a35050565b61135c8484846109ac565b60008373ffffffffffffffffffffffffffffffffffffffff163b146113be5761138784848484611966565b6113bd576040517fd1a57ed600000000000000000000000000000000000000000000000000000000815260040160405180910390fd5b5b50505050565b601060009054906101000a900460ff1681565b60606113e2826115a7565b611421576040517f08c379a000000000000000000000000000000000000000000000000000000000815260040161141890612be8565b60405180910390fd5b600f61142c83611ab6565b60405160200161143d929190612d13565b6040516020818303038152906040529050919050565b600c5481565b6114616117ad565b80601060006101000a81548160ff02191690831515021790555050565b6114866117ad565b80600c8190555050565b6000600760008473ffffffffffffffffffffffffffffffffffffffff1673ffffffffffffffffffffffffffffffffffffffff16815260200190815260200160002060008373ffffffffffffffffffffffffffffffffffffffff1673ffffffffffffffffffffffffffffffffffffffff16815260200190815260200160002060009054906101000a900460ff16905092915050565b61152c6117ad565b600073ffffffffffffffffffffffffffffffffffffffff168173ffffffffffffffffffffffffffffffffffffffff160361159b576040517f08c379a000000000000000000000000000000000000000000000000000000000815260040161159290612db4565b60405180910390fd5b6115a481611849565b50565b6000816115b261160e565b111580156115c1575060005482105b80156115ff575060007c0100000000000000000000000000000000000000000000000000000000600460008581526020019081526020016000205416145b9050919050565b600033905090565b60006001905090565b6000808290508061162661160e565b116116ac576000548110156116ab5760006004600083815260200190815260200160002054905060007c01000000000000000000000000000000000000000000000000000000008216036116a9575b6000810361169f576004600083600190039350838152602001908152602001600020549050611675565b80925050506116de565b505b5b6040517fdf2d9b4200000000000000000000000000000000000000000000000000000000815260040160405180910390fd5b919050565b60008060006006600085815260200190815260200160002090508092508254915050915091565b600073ffffffffffffffffffffffffffffffffffffffff8316925073ffffffffffffffffffffffffffffffffffffffff821691508382148383141790509392505050565b50505050565b60008060e883901c905060e861176b868684611b84565b62ffffff16901b9150509392505050565b600073ffffffffffffffffffffffffffffffffffffffff83169250814260a01b178317905092915050565b50505050565b6117b5611b8d565b73ffffffffffffffffffffffffffffffffffffffff166117d3610f5d565b73ffffffffffffffffffffffffffffffffffffffff1614611829576040517f08c379a000000000000000000000000000000000000000000000000000000000815260040161182090612e20565b60405180910390fd5b565b611845828260405180602001604052806000815250611b95565b5050565b6000600860009054906101000a900473ffffffffffffffffffffffffffffffffffffffff16905081600860006101000a81548173ffffffffffffffffffffffffffffffffffffffff021916908373ffffffffffffffffffffffffffffffffffffffff1602179055508173ffffffffffffffffffffffffffffffffffffffff168173ffffffffffffffffffffffffffffffffffffffff167f8be0079c531659141344cd1fd0a4f28419497f9722a3daafe3b4186f6b6457e060405160405180910390a35050565b600067ffffffffffffffff6040600560008573ffffffffffffffffffffffffffffffffffffffff1673ffffffffffffffffffffffffffffffffffffffff16815260200190815260200160002054901c169050919050565b60008373ffffffffffffffffffffffffffffffffffffffff1663150b7a0261198c611606565b8786866040518563ffffffff1660e01b81526004016119ae9493929190612e95565b6020604051808303816000875af19250505080156119ea57506040513d601f19601f820116820180604052508101906119e79190612ef6565b60015b611a63573d8060008114611a1a576040519150601f19603f3d011682016040523d82523d6000602084013e611a1f565b606091505b506000815103611a5b576040517fd1a57ed600000000000000000000000000000000000000000000000000000000815260040160405180910390fd5b805181602001fd5b63150b7a0260e01b7bffffffffffffffffffffffffffffffffffffffffffffffffffffffff1916817bffffffffffffffffffffffffffffffffffffffffffffffffffffffff191614915050949350505050565b606060006001611ac584611c32565b01905060008167ffffffffffffffff811115611ae457611ae36123c9565b5b6040519080825280601f01601f191660200182016040528015611b165781602001600182028036833780820191505090505b509050600082602001820190505b600115611b79578080600190039150507f3031323334353637383961626364656600000000000000000000000000000000600a86061a8153600a8581611b6d57611b6c612f23565b5b04945060008503611b24575b819350505050919050565b60009392505050565b600033905090565b611b9f8383611d85565b60008373ffffffffffffffffffffffffffffffffffffffff163b14611c2d57600080549050600083820390505b611bdf6000868380600101945086611966565b611c15576040517fd1a57ed600000000000000000000000000000000000000000000000000000000815260040160405180910390fd5b818110611bcc578160005414611c2a57600080fd5b50505b505050565b600080600090507a184f03e93ff9f4daa797ed6e38ed64bf6a1f0100000000000000008310611c90577a184f03e93ff9f4daa797ed6e38ed64bf6a1f0100000000000000008381611c8657611c85612f23565b5b0492506040810190505b6d04ee2d6d415b85acef81000000008310611ccd576d04ee2d6d415b85acef81000000008381611cc357611cc2612f23565b5b0492506020810190505b662386f26fc100008310611cfc57662386f26fc100008381611cf257611cf1612f23565b5b0492506010810190505b6305f5e1008310611d25576305f5e1008381611d1b57611d1a612f23565b5b0492506008810190505b6127108310611d4a576127108381611d4057611d3f612f23565b5b0492506004810190505b60648310611d6d5760648381611d6357611d62612f23565b5b0492506002810190505b600a8310611d7c576001810190505b80915050919050565b60008054905060008203611dc5576040517fb562e8dd00000000000000000000000000000000000000000000000000000000815260040160405180910390fd5b611dd2600084838561174e565b600160406001901b178202600560008573ffffffffffffffffffffffffffffffffffffffff1673ffffffffffffffffffffffffffffffffffffffff16815260200190815260200160002060008282540192505081905550611e4983611e3a6000866000611754565b611e4385611f40565b1761177c565b6004600083815260200190815260200160002081905550600080838301905073ffffffffffffffffffffffffffffffffffffffff85169150828260007fddf252ad1be2c89b69c2b068fc378daa952ba7f163c4a11628f55a4df523b3ef600080a4600183015b818114611eea57808360007fddf252ad1be2c89b69c2b068fc378daa952ba7f163c4a11628f55a4df523b3ef600080a4600181019050611eaf565b5060008203611f25576040517f2e07630000000000000000000000000000000000000000000000000000000000815260040160405180910390fd5b806000819055505050611f3b60008483856117a7565b505050565b60006001821460e11b9050919050565b6000604051905090565b600080fd5b600080fd5b60007fffffffff0000000000000000000000000000000000000000000000000000000082169050919050565b611f9981611f64565b8114611fa457600080fd5b50565b600081359050611fb681611f90565b92915050565b600060208284031215611fd257611fd1611f5a565b5b6000611fe084828501611fa7565b91505092915050565b60008115159050919050565b611ffe81611fe9565b82525050565b60006020820190506120196000830184611ff5565b92915050565b600081519050919050565b600082825260208201905092915050565b60005b8381101561205957808201518184015260208101905061203e565b60008484015250505050565b6000601f19601f8301169050919050565b60006120818261201f565b61208b818561202a565b935061209b81856020860161203b565b6120a481612065565b840191505092915050565b600060208201905081810360008301526120c98184612076565b905092915050565b6000819050919050565b6120e4816120d1565b81146120ef57600080fd5b50565b600081359050612101816120db565b92915050565b60006020828403121561211d5761211c611f5a565b5b600061212b848285016120f2565b91505092915050565b600073ffffffffffffffffffffffffffffffffffffffff82169050919050565b600061215f82612134565b9050919050565b61216f81612154565b82525050565b600060208201905061218a6000830184612166565b92915050565b61219981612154565b81146121a457600080fd5b50565b6000813590506121b681612190565b92915050565b600080604083850312156121d3576121d2611f5a565b5b60006121e1858286016121a7565b92505060206121f2858286016120f2565b9150509250929050565b612205816120d1565b82525050565b600060208201905061222060008301846121fc565b92915050565b60008060006060848603121561223f5761223e611f5a565b5b600061224d868287016121a7565b935050602061225e868287016121a7565b925050604061226f868287016120f2565b9150509250925092565b60006020828403121561228f5761228e611f5a565b5b600061229d848285016121a7565b91505092915050565b600080fd5b600080fd5b600080fd5b60008083601f8401126122cb576122ca6122a6565b5b8235905067ffffffffffffffff8111156122e8576122e76122ab565b5b602083019150836001820283011115612304576123036122b0565b5b9250929050565b6000806020838503121561232257612321611f5a565b5b600083013567ffffffffffffffff8111156123405761233f611f5f565b5b61234c858286016122b5565b92509250509250929050565b61236181611fe9565b811461236c57600080fd5b50565b60008135905061237e81612358565b92915050565b6000806040838503121561239b5761239a611f5a565b5b60006123a9858286016121a7565b92505060206123ba8582860161236f565b9150509250929050565b600080fd5b7f4e487b7100000000000000000000000000000000000000000000000000000000600052604160045260246000fd5b61240182612065565b810181811067ffffffffffffffff821117156124205761241f6123c9565b5b80604052505050565b6000612433611f50565b905061243f82826123f8565b919050565b600067ffffffffffffffff82111561245f5761245e6123c9565b5b61246882612065565b9050602081019050919050565b82818337600083830152505050565b600061249761249284612444565b612429565b9050828152602081018484840111156124b3576124b26123c4565b5b6124be848285612475565b509392505050565b600082601f8301126124db576124da6122a6565b5b81356124eb848260208601612484565b91505092915050565b6000806000806080858703121561250e5761250d611f5a565b5b600061251c878288016121a7565b945050602061252d878288016121a7565b935050604061253e878288016120f2565b925050606085013567ffffffffffffffff81111561255f5761255e611f5f565b5b61256b878288016124c6565b91505092959194509250565b60006020828403121561258d5761258c611f5a565b5b600061259b8482850161236f565b91505092915050565b600080604083850312156125bb576125ba611f5a565b5b60006125c9858286016121a7565b92505060206125da858286016121a7565b9150509250929050565b7f4e487b7100000000000000000000000000000000000000000000000000000000600052602260045260246000fd5b6000600282049050600182168061262b57607f821691505b60208210810361263e5761263d6125e4565b5b50919050565b7f4e487b7100000000000000000000000000000000000000000000000000000000600052601160045260246000fd5b600061267e826120d1565b9150612689836120d1565b92508282019050808211156126a1576126a0612644565b5b92915050565b7f534f4c44204f5554210000000000000000000000000000000000000000000000600082015250565b60006126dd60098361202a565b91506126e8826126a7565b602082019050919050565b6000602082019050818103600083015261270c816126d0565b9050919050565b600061271e826120d1565b91507fffffffffffffffffffffffffffffffffffffffffffffffffffffffffffffffff82036127505761274f612644565b5b600182019050919050565b600082905092915050565b60008190508160005260206000209050919050565b60006020601f8301049050919050565b600082821b905092915050565b6000600883026127c87fffffffffffffffffffffffffffffffffffffffffffffffffffffffffffffffff8261278b565b6127d2868361278b565b95508019841693508086168417925050509392505050565b6000819050919050565b600061280f61280a612805846120d1565b6127ea565b6120d1565b9050919050565b6000819050919050565b612829836127f4565b61283d61283582612816565b848454612798565b825550505050565b600090565b612852612845565b61285d818484612820565b505050565b5b818110156128815761287660008261284a565b600181019050612863565b5050565b601f8211156128c65761289781612766565b6128a08461277b565b810160208510156128af578190505b6128c36128bb8561277b565b830182612862565b50505b505050565b600082821c905092915050565b60006128e9600019846008026128cb565b1980831691505092915050565b600061290283836128d8565b9150826002028217905092915050565b61291c838361275b565b67ffffffffffffffff811115612935576129346123c9565b5b61293f8254612613565b61294a828285612885565b6000601f8311600181146129795760008415612967578287013590505b61297185826128f6565b8655506129d9565b601f19841661298786612766565b60005b828110156129af5784890135825560018201915060208501945060208101905061298a565b868310156129cc57848901356129c8601f8916826128d8565b8355505b6001600288020188555050505b50505050505050565b7f5075626c6963204d696e7420436c6f7365640000000000000000000000000000600082015250565b6000612a1860128361202a565b9150612a23826129e2565b602082019050919050565b60006020820190508181036000830152612a4781612a0b565b9050919050565b7f496e76616c6964207175616e7469747900000000000000000000000000000000600082015250565b6000612a8460108361202a565b9150612a8f82612a4e565b602082019050919050565b60006020820190508181036000830152612ab381612a77565b9050919050565b6000612ac5826120d1565b9150612ad0836120d1565b9250828203905081811115612ae857612ae7612644565b5b92915050565b6000612af9826120d1565b9150612b04836120d1565b9250828202612b12816120d1565b91508282048414831517612b2957612b28612644565b5b5092915050565b7f6e6f7420656e6f75676820657468657200000000000000000000000000000000600082015250565b6000612b6660108361202a565b9150612b7182612b30565b602082019050919050565b60006020820190508181036000830152612b9581612b59565b9050919050565b7f546f6b656e20646f6573206e6f74206578697374000000000000000000000000600082015250565b6000612bd260148361202a565b9150612bdd82612b9c565b602082019050919050565b60006020820190508181036000830152612c0181612bc5565b9050919050565b600081905092915050565b60008154612c2081612613565b612c2a8186612c08565b94506001821660008114612c455760018114612c5a57612c8d565b60ff1983168652811515820286019350612c8d565b612c6385612766565b60005b83811015612c8557815481890152600182019150602081019050612c66565b838801955050505b50505092915050565b6000612ca18261201f565b612cab8185612c08565b9350612cbb81856020860161203b565b80840191505092915050565b7f2e6a736f6e000000000000000000000000000000000000000000000000000000600082015250565b6000612cfd600583612c08565b9150612d0882612cc7565b600582019050919050565b6000612d1f8285612c13565b9150612d2b8284612c96565b9150612d3682612cf0565b91508190509392505050565b7f4f776e61626c653a206e6577206f776e657220697320746865207a65726f206160008201527f6464726573730000000000000000000000000000000000000000000000000000602082015250565b6000612d9e60268361202a565b9150612da982612d42565b604082019050919050565b60006020820190508181036000830152612dcd81612d91565b9050919050565b7f4f776e61626c653a2063616c6c6572206973206e6f7420746865206f776e6572600082015250565b6000612e0a60208361202a565b9150612e1582612dd4565b602082019050919050565b60006020820190508181036000830152612e3981612dfd565b9050919050565b600081519050919050565b600082825260208201905092915050565b6000612e6782612e40565b612e718185612e4b565b9350612e8181856020860161203b565b612e8a81612065565b840191505092915050565b6000608082019050612eaa6000830187612166565b612eb76020830186612166565b612ec460408301856121fc565b8181036060830152612ed68184612e5c565b905095945050505050565b600081519050612ef081611f90565b92915050565b600060208284031215612f0c57612f0b611f5a565b5b6000612f1a84828501612ee1565b91505092915050565b7f4e487b7100000000000000000000000000000000000000000000000000000000600052601260045260246000fdfea26469706673582212208a62a981d17920b9848fe7c64f336e1dfaa77584aa6191a8ecc29b260e7466a464736f6c63430008110033",
  "linkReferences": {},
  "deployedLinkReferences": {}
}